{
  "contractName": "CrowdsaleBEP20",
  "abi": [
    {
      "inputs": [
        {
          "internalType": "uint256",
          "name": "_rate",
          "type": "uint256"
        },
        {
          "internalType": "address payable",
          "name": "_owner",
          "type": "address"
        },
        {
          "internalType": "contract IERC20",
          "name": "_token",
          "type": "address"
        },
        {
          "internalType": "uint256",
          "name": "_startTime",
          "type": "uint256"
        },
        {
          "internalType": "uint256",
          "name": "_endTime",
          "type": "uint256"
        }
      ],
      "payable": false,
      "stateMutability": "nonpayable",
      "type": "constructor"
    },
    {
      "constant": true,
      "inputs": [],
      "name": "endTime",
      "outputs": [
        {
          "internalType": "uint256",
          "name": "",
          "type": "uint256"
        }
      ],
      "payable": false,
      "stateMutability": "view",
      "type": "function"
    },
    {
      "constant": true,
      "inputs": [],
      "name": "owner",
      "outputs": [
        {
          "internalType": "address",
          "name": "",
          "type": "address"
        }
      ],
      "payable": false,
      "stateMutability": "view",
      "type": "function"
    },
    {
      "constant": true,
      "inputs": [],
      "name": "payableToken",
      "outputs": [
        {
          "internalType": "contract IERC20",
          "name": "",
          "type": "address"
        }
      ],
      "payable": false,
      "stateMutability": "view",
      "type": "function"
    },
    {
      "constant": true,
      "inputs": [],
      "name": "rate",
      "outputs": [
        {
          "internalType": "uint256",
          "name": "",
          "type": "uint256"
        }
      ],
      "payable": false,
      "stateMutability": "view",
      "type": "function"
    },
    {
      "constant": true,
      "inputs": [],
      "name": "startTime",
      "outputs": [
        {
          "internalType": "uint256",
          "name": "",
          "type": "uint256"
        }
      ],
      "payable": false,
      "stateMutability": "view",
      "type": "function"
    },
    {
      "constant": false,
      "inputs": [
        {
          "internalType": "uint256",
          "name": "amount",
          "type": "uint256"
        }
      ],
      "name": "acceptAnotherPayableToken",
      "outputs": [],
      "payable": false,
      "stateMutability": "nonpayable",
      "type": "function"
    },
    {
      "constant": false,
      "inputs": [
        {
          "internalType": "uint256",
          "name": "amount",
          "type": "uint256"
        }
      ],
      "name": "removeFunds",
      "outputs": [],
      "payable": false,
      "stateMutability": "nonpayable",
      "type": "function"
    }
  ],
  "bytecode": "0x60806040527364544969ed7ebf5f083679233325356ebe7389306000806101000a81548173ffffffffffffffffffffffffffffffffffffffff021916908373ffffffffffffffffffffffffffffffffffffffff16021790555034801561006457600080fd5b50604051610b20380380610b20833981810160405260a081101561008757600080fd5b810190808051906020019092919080519060200190929190805190602001909291908051906020019092919080519060200190929190505050816002819055508060038190555082600160006101000a81548173ffffffffffffffffffffffffffffffffffffffff021916908373ffffffffffffffffffffffffffffffffffffffff16021790555083600460006101000a81548173ffffffffffffffffffffffffffffffffffffffff021916908373ffffffffffffffffffffffffffffffffffffffff1602179055508460058190555050505050506109b58061016b6000396000f3fe608060405234801561001057600080fd5b506004361061007d5760003560e01c80633197cbb61161005b5780633197cbb61461011857806378e97925146101365780638da5cb5b14610154578063d20a8a821461019e5761007d565b80631b09dc9b146100825780632c4e722e146100cc5780632f384523146100ea575b600080fd5b61008a6101cc565b604051808273ffffffffffffffffffffffffffffffffffffffff1673ffffffffffffffffffffffffffffffffffffffff16815260200191505060405180910390f35b6100d46101f1565b6040518082815260200191505060405180910390f35b6101166004803603602081101561010057600080fd5b81019080803590602001909291905050506101f7565b005b61012061048d565b6040518082815260200191505060405180910390f35b61013e610493565b6040518082815260200191505060405180910390f35b61015c610499565b604051808273ffffffffffffffffffffffffffffffffffffffff1673ffffffffffffffffffffffffffffffffffffffff16815260200191505060405180910390f35b6101ca600480360360208110156101b457600080fd5b81019080803590602001909291905050506104bf565b005b6000809054906101000a900473ffffffffffffffffffffffffffffffffffffffff1681565b60055481565b600460009054906101000a900473ffffffffffffffffffffffffffffffffffffffff1673ffffffffffffffffffffffffffffffffffffffff163373ffffffffffffffffffffffffffffffffffffffff161461029d576040517f08c379a000000000000000000000000000000000000000000000000000000000815260040180806020018281038252602b815260200180610934602b913960400191505060405180910390fd5b600160009054906101000a900473ffffffffffffffffffffffffffffffffffffffff1673ffffffffffffffffffffffffffffffffffffffff166370a08231306040518263ffffffff1660e01b8152600401808273ffffffffffffffffffffffffffffffffffffffff1673ffffffffffffffffffffffffffffffffffffffff16815260200191505060206040518083038186803b15801561033c57600080fd5b505afa158015610350573d6000803e3d6000fd5b505050506040513d602081101561036657600080fd5b810190808051906020019092919050505081111561038357600080fd5b600160009054906101000a900473ffffffffffffffffffffffffffffffffffffffff1673ffffffffffffffffffffffffffffffffffffffff1663a9059cbb600460009054906101000a900473ffffffffffffffffffffffffffffffffffffffff16836040518363ffffffff1660e01b8152600401808373ffffffffffffffffffffffffffffffffffffffff1673ffffffffffffffffffffffffffffffffffffffff16815260200182815260200192505050602060405180830381600087803b15801561044e57600080fd5b505af1158015610462573d6000803e3d6000fd5b505050506040513d602081101561047857600080fd5b81019080805190602001909291905050505050565b60035481565b60025481565b600460009054906101000a900473ffffffffffffffffffffffffffffffffffffffff1681565b60025442101580156104d357506003544211155b610528576040517f08c379a000000000000000000000000000000000000000000000000000000000815260040180806020018281038252602281526020018061095f6022913960400191505060405180910390fd5b600033905060008060009054906101000a900473ffffffffffffffffffffffffffffffffffffffff1673ffffffffffffffffffffffffffffffffffffffff166370a08231836040518263ffffffff1660e01b8152600401808273ffffffffffffffffffffffffffffffffffffffff1673ffffffffffffffffffffffffffffffffffffffff16815260200191505060206040518083038186803b1580156105cd57600080fd5b505afa1580156105e1573d6000803e3d6000fd5b505050506040513d60208110156105f757600080fd5b810190808051906020019092919050505090508281101561061757600080fd5b600060055484029050600160009054906101000a900473ffffffffffffffffffffffffffffffffffffffff1673ffffffffffffffffffffffffffffffffffffffff166370a08231306040518263ffffffff1660e01b8152600401808273ffffffffffffffffffffffffffffffffffffffff1673ffffffffffffffffffffffffffffffffffffffff16815260200191505060206040518083038186803b1580156106bf57600080fd5b505afa1580156106d3573d6000803e3d6000fd5b505050506040513d60208110156106e957600080fd5b810190808051906020019092919050505081111561070657600080fd5b83821061092d576000809054906101000a900473ffffffffffffffffffffffffffffffffffffffff1673ffffffffffffffffffffffffffffffffffffffff166323b872dd84600460009054906101000a900473ffffffffffffffffffffffffffffffffffffffff16876040518463ffffffff1660e01b8152600401808473ffffffffffffffffffffffffffffffffffffffff1673ffffffffffffffffffffffffffffffffffffffff1681526020018373ffffffffffffffffffffffffffffffffffffffff1673ffffffffffffffffffffffffffffffffffffffff1681526020018281526020019350505050602060405180830381600087803b15801561080b57600080fd5b505af115801561081f573d6000803e3d6000fd5b505050506040513d602081101561083557600080fd5b810190808051906020019092919050505050600160009054906101000a900473ffffffffffffffffffffffffffffffffffffffff1673ffffffffffffffffffffffffffffffffffffffff1663a9059cbb84836040518363ffffffff1660e01b8152600401808373ffffffffffffffffffffffffffffffffffffffff1673ffffffffffffffffffffffffffffffffffffffff16815260200182815260200192505050602060405180830381600087803b1580156108f057600080fd5b505af1158015610904573d6000803e3d6000fd5b505050506040513d602081101561091a57600080fd5b8101908080519060200190929190505050505b5050505056fe4f6e6c7920636f6e7472616374206f776e65722063616e20706572666f726d207468697320616374696f6e43726f776473616c65206973206e6f74206f70656e20617420746869732074696d65a265627a7a72315820c355accb86065ec48fc5a78546dd54e32f6b070614049dcd3f972240376cf94a64736f6c63430005100032",
  "source": "pragma solidity ^0.5.5;\r\n\r\n/**\r\n * @dev This is an example of a fully fledged crowdsale.\r\n */\r\n\r\nimport \"@openzeppelin/contracts/token/ERC20/IERC20.sol\";\r\n\r\ncontract CrowdsaleBEP20 {\r\n    IERC20 public payableToken =\r\n        IERC20(0x64544969ed7EBf5f083679233325356EbE738930); //USDC on BSC TESTNET\r\n\r\n    IERC20 token;\r\n\r\n    uint256 public startTime;\r\n    uint256 public endTime;\r\n    address public owner;\r\n    uint256 public rate;\r\n\r\n    constructor(\r\n        uint256 _rate,\r\n        address payable _owner,\r\n        IERC20 _token,\r\n        uint256 _startTime,\r\n        uint256 _endTime\r\n    ) public {\r\n        startTime = _startTime;\r\n        endTime = _endTime;\r\n        token = _token;\r\n        owner = _owner;\r\n        rate = _rate;\r\n    }\r\n\r\n    modifier inAllowedTime {\r\n        require(\r\n            block.timestamp >= startTime && block.timestamp <= endTime,\r\n            \"Crowdsale is not open at this time\"\r\n        );\r\n        _;\r\n    }\r\n\r\n    modifier ownerOnly {\r\n        require(\r\n            msg.sender == owner,\r\n            \"Only contract owner can perform this action\"\r\n        );\r\n        _;\r\n    }\r\n\r\n    //user MUST call approve function on the payable token from their address (USDC in this case)\r\n    function acceptAnotherPayableToken(uint256 amount) external inAllowedTime {\r\n        address user = msg.sender;\r\n\r\n        uint256 userBalance = payableToken.balanceOf(user);\r\n\r\n        require(userBalance >= amount);\r\n\r\n        uint256 calculatedAmount = amount * rate;\r\n\r\n        require(calculatedAmount <= token.balanceOf(address(this)));\r\n\r\n        if (userBalance >= amount) {\r\n            payableToken.transferFrom(user, owner, amount);\r\n            token.transfer(user, calculatedAmount);\r\n        }\r\n    }\r\n\r\n    function removeFunds(uint256 amount) external ownerOnly {\r\n        require(amount <= token.balanceOf(address(this)));\r\n        token.transfer(owner, amount);\r\n    }\r\n}\r\n",
  "sourcePath": "C:/Users/An0N/Documents/Solidity/Torum-Test/contracts/CrowdsaleBEP20.sol",
  "compiler": {
    "name": "solc",
    "version": "0.5.16+commit.9c3226ce.Emscripten.clang"
  },
  "schemaVersion": "3.4.1",
  "updatedAt": "2021-05-18T20:50:40.289Z",
  "networkType": "ethereum",
  "devdoc": {
    "methods": {}
  },
  "userdoc": {
    "methods": {}
  }
}